{
  "address": "0x6DBd4775283cE56B3501c9bce2037a8Eb65F5Ef3",
  "abi": [
    {
      "inputs": [
        {
          "internalType": "address",
          "name": "entity",
          "type": "address"
        },
        {
          "internalType": "address",
          "name": "esgAuthority",
          "type": "address"
        },
        {
          "internalType": "bytes32",
          "name": "initialName",
          "type": "bytes32"
        },
        {
          "internalType": "bytes32",
          "name": "initialLocation",
          "type": "bytes32"
        },
        {
          "internalType": "bytes32",
          "name": "initialProductDesc",
          "type": "bytes32"
        },
        {
          "internalType": "uint8",
          "name": "evaluatedEsgScore",
          "type": "uint8"
        }
      ],
      "stateMutability": "nonpayable",
      "type": "constructor"
    },
    {
      "inputs": [],
      "name": "AccessControlBadConfirmation",
      "type": "error"
    },
    {
      "inputs": [
        {
          "internalType": "address",
          "name": "account",
          "type": "address"
        },
        {
          "internalType": "bytes32",
          "name": "neededRole",
          "type": "bytes32"
        }
      ],
      "name": "AccessControlUnauthorizedAccount",
      "type": "error"
    },
    {
      "anonymous": false,
      "inputs": [
        {
          "indexed": true,
          "internalType": "bytes32",
          "name": "role",
          "type": "bytes32"
        },
        {
          "indexed": true,
          "internalType": "bytes32",
          "name": "previousAdminRole",
          "type": "bytes32"
        },
        {
          "indexed": true,
          "internalType": "bytes32",
          "name": "newAdminRole",
          "type": "bytes32"
        }
      ],
      "name": "RoleAdminChanged",
      "type": "event"
    },
    {
      "anonymous": false,
      "inputs": [
        {
          "indexed": true,
          "internalType": "bytes32",
          "name": "role",
          "type": "bytes32"
        },
        {
          "indexed": true,
          "internalType": "address",
          "name": "account",
          "type": "address"
        },
        {
          "indexed": true,
          "internalType": "address",
          "name": "sender",
          "type": "address"
        }
      ],
      "name": "RoleGranted",
      "type": "event"
    },
    {
      "anonymous": false,
      "inputs": [
        {
          "indexed": true,
          "internalType": "bytes32",
          "name": "role",
          "type": "bytes32"
        },
        {
          "indexed": true,
          "internalType": "address",
          "name": "account",
          "type": "address"
        },
        {
          "indexed": true,
          "internalType": "address",
          "name": "sender",
          "type": "address"
        }
      ],
      "name": "RoleRevoked",
      "type": "event"
    },
    {
      "inputs": [],
      "name": "DEFAULT_ADMIN_ROLE",
      "outputs": [
        {
          "internalType": "bytes32",
          "name": "",
          "type": "bytes32"
        }
      ],
      "stateMutability": "view",
      "type": "function"
    },
    {
      "inputs": [],
      "name": "ESG_MANAGER_ROLE",
      "outputs": [
        {
          "internalType": "bytes32",
          "name": "",
          "type": "bytes32"
        }
      ],
      "stateMutability": "view",
      "type": "function"
    },
    {
      "inputs": [],
      "name": "carbonUsage",
      "outputs": [
        {
          "internalType": "uint256",
          "name": "",
          "type": "uint256"
        }
      ],
      "stateMutability": "view",
      "type": "function"
    },
    {
      "inputs": [],
      "name": "esgScore",
      "outputs": [
        {
          "internalType": "uint8",
          "name": "",
          "type": "uint8"
        }
      ],
      "stateMutability": "view",
      "type": "function"
    },
    {
      "inputs": [
        {
          "internalType": "bytes32",
          "name": "role",
          "type": "bytes32"
        }
      ],
      "name": "getRoleAdmin",
      "outputs": [
        {
          "internalType": "bytes32",
          "name": "",
          "type": "bytes32"
        }
      ],
      "stateMutability": "view",
      "type": "function"
    },
    {
      "inputs": [
        {
          "internalType": "bytes32",
          "name": "role",
          "type": "bytes32"
        },
        {
          "internalType": "address",
          "name": "account",
          "type": "address"
        }
      ],
      "name": "grantRole",
      "outputs": [],
      "stateMutability": "nonpayable",
      "type": "function"
    },
    {
      "inputs": [
        {
          "internalType": "bytes32",
          "name": "role",
          "type": "bytes32"
        },
        {
          "internalType": "address",
          "name": "account",
          "type": "address"
        }
      ],
      "name": "hasRole",
      "outputs": [
        {
          "internalType": "bool",
          "name": "",
          "type": "bool"
        }
      ],
      "stateMutability": "view",
      "type": "function"
    },
    {
      "inputs": [],
      "name": "lastUpdated",
      "outputs": [
        {
          "internalType": "uint256",
          "name": "",
          "type": "uint256"
        }
      ],
      "stateMutability": "view",
      "type": "function"
    },
    {
      "inputs": [],
      "name": "location",
      "outputs": [
        {
          "internalType": "bytes32",
          "name": "",
          "type": "bytes32"
        }
      ],
      "stateMutability": "view",
      "type": "function"
    },
    {
      "inputs": [],
      "name": "name",
      "outputs": [
        {
          "internalType": "bytes32",
          "name": "",
          "type": "bytes32"
        }
      ],
      "stateMutability": "view",
      "type": "function"
    },
    {
      "inputs": [],
      "name": "plasticUsage",
      "outputs": [
        {
          "internalType": "uint256",
          "name": "",
          "type": "uint256"
        }
      ],
      "stateMutability": "view",
      "type": "function"
    },
    {
      "inputs": [
        {
          "internalType": "uint256",
          "name": "newCarbonUsage",
          "type": "uint256"
        },
        {
          "internalType": "uint256",
          "name": "newWaterUsage",
          "type": "uint256"
        },
        {
          "internalType": "uint256",
          "name": "newPlasticUsage",
          "type": "uint256"
        },
        {
          "internalType": "uint256",
          "name": "newProduceWeight",
          "type": "uint256"
        }
      ],
      "name": "produce",
      "outputs": [],
      "stateMutability": "nonpayable",
      "type": "function"
    },
    {
      "inputs": [],
      "name": "produceWeight",
      "outputs": [
        {
          "internalType": "uint256",
          "name": "",
          "type": "uint256"
        }
      ],
      "stateMutability": "view",
      "type": "function"
    },
    {
      "inputs": [],
      "name": "productDescription",
      "outputs": [
        {
          "internalType": "bytes32",
          "name": "",
          "type": "bytes32"
        }
      ],
      "stateMutability": "view",
      "type": "function"
    },
    {
      "inputs": [
        {
          "internalType": "bytes32",
          "name": "role",
          "type": "bytes32"
        },
        {
          "internalType": "address",
          "name": "callerConfirmation",
          "type": "address"
        }
      ],
      "name": "renounceRole",
      "outputs": [],
      "stateMutability": "nonpayable",
      "type": "function"
    },
    {
      "inputs": [
        {
          "internalType": "bytes32",
          "name": "role",
          "type": "bytes32"
        },
        {
          "internalType": "address",
          "name": "account",
          "type": "address"
        }
      ],
      "name": "revokeRole",
      "outputs": [],
      "stateMutability": "nonpayable",
      "type": "function"
    },
    {
      "inputs": [
        {
          "internalType": "bytes4",
          "name": "interfaceId",
          "type": "bytes4"
        }
      ],
      "name": "supportsInterface",
      "outputs": [
        {
          "internalType": "bool",
          "name": "",
          "type": "bool"
        }
      ],
      "stateMutability": "view",
      "type": "function"
    },
    {
      "inputs": [
        {
          "internalType": "uint8",
          "name": "updatedEsgScore",
          "type": "uint8"
        }
      ],
      "name": "updateEsgScore",
      "outputs": [],
      "stateMutability": "nonpayable",
      "type": "function"
    },
    {
      "inputs": [],
      "name": "waterUsage",
      "outputs": [
        {
          "internalType": "uint256",
          "name": "",
          "type": "uint256"
        }
      ],
      "stateMutability": "view",
      "type": "function"
    }
  ],
  "transactionHash": "0x86289ab641db603deffc55843baaf3749b75f448da6667e60d03b6806708562f",
  "args": [
    "0xF20E0Cb052361c55e235FF20929a6660CE705abf",
    "0x79C28Dde70A1098b724c4B3b50302adC97633fCd",
    "0x4e54554320466169727072696365000000000000000000000000000000000000",
    "0x53696e6761706f72650000000000000000000000000000000000000000000000",
    "0x446173616e6920776174657220626f74746c6573000000000000000000000000",
    82
  ],
  "numDeployments": 11,
  "solcInputHash": "8084371b9b5c1bcddb3f5edec280d94d",
  "bytecode": "0x60806040523480156200001157600080fd5b50604051620011e3380380620011e383398181016040528101906200003791906200031b565b8360018190555082600281905550816003819055506200007e7f328ea31eb72cc9b0141cc07a0c522af89b254f0025b0b6f77b1cf6dc0ed9cbd986620000c360201b60201c565b50620000946000801b87620000c360201b60201c565b504260098190555080600860006101000a81548160ff021916908360ff160217905550505050505050620003b7565b6000620000d78383620001c660201b60201c565b620001bb57600160008085815260200190815260200160002060000160008473ffffffffffffffffffffffffffffffffffffffff1673ffffffffffffffffffffffffffffffffffffffff16815260200190815260200160002060006101000a81548160ff021916908315150217905550620001576200023060201b60201c565b73ffffffffffffffffffffffffffffffffffffffff168273ffffffffffffffffffffffffffffffffffffffff16847f2f8788117e7eff1d82e926ec794901d17c78024a50270940304540a733656f0d60405160405180910390a460019050620001c0565b600090505b92915050565b600080600084815260200190815260200160002060000160008373ffffffffffffffffffffffffffffffffffffffff1673ffffffffffffffffffffffffffffffffffffffff16815260200190815260200160002060009054906101000a900460ff16905092915050565b600033905090565b600080fd5b600073ffffffffffffffffffffffffffffffffffffffff82169050919050565b60006200026a826200023d565b9050919050565b6200027c816200025d565b81146200028857600080fd5b50565b6000815190506200029c8162000271565b92915050565b6000819050919050565b620002b781620002a2565b8114620002c357600080fd5b50565b600081519050620002d781620002ac565b92915050565b600060ff82169050919050565b620002f581620002dd565b81146200030157600080fd5b50565b6000815190506200031581620002ea565b92915050565b60008060008060008060c087890312156200033b576200033a62000238565b5b60006200034b89828a016200028b565b96505060206200035e89828a016200028b565b95505060406200037189828a01620002c6565b94505060606200038489828a01620002c6565b93505060806200039789828a01620002c6565b92505060a0620003aa89828a0162000304565b9150509295509295509295565b610e1c80620003c76000396000f3fe608060405234801561001057600080fd5b50600436106101215760003560e01c8063516f279e116100ad578063a217fddf11610071578063a217fddf146102f8578063c0ceb47414610316578063d0b06f5d14610334578063d547741f14610352578063d6526b951461036e57610121565b8063516f279e146102505780635e2408591461026e5780636cef4a7f1461028c5780638a30f8cc146102aa57806391d14854146102c857610121565b80632abb6544116100f45780632abb6544146101c05780632cb82c91146101de5780632f2ff15d146101fa57806336568abe14610216578063470ddff01461023257610121565b806301ffc9a71461012657806306fdde03146101565780630ab72bf114610174578063248a9ca314610190575b600080fd5b610140600480360381019061013b91906109e9565b61038c565b60405161014d9190610a31565b60405180910390f35b61015e610406565b60405161016b9190610a65565b60405180910390f35b61018e60048036038101906101899190610ab9565b61040c565b005b6101aa60048036038101906101a59190610b12565b6104a3565b6040516101b79190610a65565b60405180910390f35b6101c86104c2565b6040516101d59190610b58565b60405180910390f35b6101f860048036038101906101f39190610b9f565b6104c8565b005b610214600480360381019061020f9190610c64565b610547565b005b610230600480360381019061022b9190610c64565b610569565b005b61023a6105e4565b6040516102479190610b58565b60405180910390f35b6102586105ea565b6040516102659190610a65565b60405180910390f35b6102766105f0565b6040516102839190610b58565b60405180910390f35b6102946105f6565b6040516102a19190610a65565b60405180910390f35b6102b261061a565b6040516102bf9190610a65565b60405180910390f35b6102e260048036038101906102dd9190610c64565b610620565b6040516102ef9190610a31565b60405180910390f35b61030061068a565b60405161030d9190610a65565b60405180910390f35b61031e610691565b60405161032b9190610cb3565b60405180910390f35b61033c6106a4565b6040516103499190610b58565b60405180910390f35b61036c60048036038101906103679190610c64565b6106aa565b005b6103766106cc565b6040516103839190610b58565b60405180910390f35b60007f7965db0b000000000000000000000000000000000000000000000000000000007bffffffffffffffffffffffffffffffffffffffffffffffffffffffff1916827bffffffffffffffffffffffffffffffffffffffffffffffffffffffff191614806103ff57506103fe826106d2565b5b9050919050565b60015481565b7f328ea31eb72cc9b0141cc07a0c522af89b254f0025b0b6f77b1cf6dc0ed9cbd96104368161073c565b60648260ff16111561047d576040517f08c379a000000000000000000000000000000000000000000000000000000000815260040161047490610d2b565b60405180910390fd5b81600860006101000a81548160ff021916908360ff160217905550426009819055505050565b6000806000838152602001908152602001600020600101549050919050565b60055481565b6000801b6104d58161073c565b84600460008282546104e79190610d7a565b9250508190555083600560008282546105009190610d7a565b9250508190555082600660008282546105199190610d7a565b9250508190555081600760008282546105329190610d7a565b92505081905550426009819055505050505050565b610550826104a3565b6105598161073c565b6105638383610750565b50505050565b610571610841565b73ffffffffffffffffffffffffffffffffffffffff168173ffffffffffffffffffffffffffffffffffffffff16146105d5576040517f6697b23200000000000000000000000000000000000000000000000000000000815260040160405180910390fd5b6105df8282610849565b505050565b60065481565b60025481565b60075481565b7f328ea31eb72cc9b0141cc07a0c522af89b254f0025b0b6f77b1cf6dc0ed9cbd981565b60035481565b600080600084815260200190815260200160002060000160008373ffffffffffffffffffffffffffffffffffffffff1673ffffffffffffffffffffffffffffffffffffffff16815260200190815260200160002060009054906101000a900460ff16905092915050565b6000801b81565b600860009054906101000a900460ff1681565b60095481565b6106b3826104a3565b6106bc8161073c565b6106c68383610849565b50505050565b60045481565b60007f01ffc9a7000000000000000000000000000000000000000000000000000000007bffffffffffffffffffffffffffffffffffffffffffffffffffffffff1916827bffffffffffffffffffffffffffffffffffffffffffffffffffffffff1916149050919050565b61074d81610748610841565b61093b565b50565b600061075c8383610620565b61083657600160008085815260200190815260200160002060000160008473ffffffffffffffffffffffffffffffffffffffff1673ffffffffffffffffffffffffffffffffffffffff16815260200190815260200160002060006101000a81548160ff0219169083151502179055506107d3610841565b73ffffffffffffffffffffffffffffffffffffffff168273ffffffffffffffffffffffffffffffffffffffff16847f2f8788117e7eff1d82e926ec794901d17c78024a50270940304540a733656f0d60405160405180910390a46001905061083b565b600090505b92915050565b600033905090565b60006108558383610620565b1561093057600080600085815260200190815260200160002060000160008473ffffffffffffffffffffffffffffffffffffffff1673ffffffffffffffffffffffffffffffffffffffff16815260200190815260200160002060006101000a81548160ff0219169083151502179055506108cd610841565b73ffffffffffffffffffffffffffffffffffffffff168273ffffffffffffffffffffffffffffffffffffffff16847ff6391f5c32d9c69d2a47ea670b442974b53935d1edc7fd64eb21e047a839171b60405160405180910390a460019050610935565b600090505b92915050565b6109458282610620565b6109885780826040517fe2517d3f00000000000000000000000000000000000000000000000000000000815260040161097f929190610dbd565b60405180910390fd5b5050565b600080fd5b60007fffffffff0000000000000000000000000000000000000000000000000000000082169050919050565b6109c681610991565b81146109d157600080fd5b50565b6000813590506109e3816109bd565b92915050565b6000602082840312156109ff576109fe61098c565b5b6000610a0d848285016109d4565b91505092915050565b60008115159050919050565b610a2b81610a16565b82525050565b6000602082019050610a466000830184610a22565b92915050565b6000819050919050565b610a5f81610a4c565b82525050565b6000602082019050610a7a6000830184610a56565b92915050565b600060ff82169050919050565b610a9681610a80565b8114610aa157600080fd5b50565b600081359050610ab381610a8d565b92915050565b600060208284031215610acf57610ace61098c565b5b6000610add84828501610aa4565b91505092915050565b610aef81610a4c565b8114610afa57600080fd5b50565b600081359050610b0c81610ae6565b92915050565b600060208284031215610b2857610b2761098c565b5b6000610b3684828501610afd565b91505092915050565b6000819050919050565b610b5281610b3f565b82525050565b6000602082019050610b6d6000830184610b49565b92915050565b610b7c81610b3f565b8114610b8757600080fd5b50565b600081359050610b9981610b73565b92915050565b60008060008060808587031215610bb957610bb861098c565b5b6000610bc787828801610b8a565b9450506020610bd887828801610b8a565b9350506040610be987828801610b8a565b9250506060610bfa87828801610b8a565b91505092959194509250565b600073ffffffffffffffffffffffffffffffffffffffff82169050919050565b6000610c3182610c06565b9050919050565b610c4181610c26565b8114610c4c57600080fd5b50565b600081359050610c5e81610c38565b92915050565b60008060408385031215610c7b57610c7a61098c565b5b6000610c8985828601610afd565b9250506020610c9a85828601610c4f565b9150509250929050565b610cad81610a80565b82525050565b6000602082019050610cc86000830184610ca4565b92915050565b600082825260208201905092915050565b7f4553472073636f7265206d75737420626520313030206f72206c6f7765720000600082015250565b6000610d15601e83610cce565b9150610d2082610cdf565b602082019050919050565b60006020820190508181036000830152610d4481610d08565b9050919050565b7f4e487b7100000000000000000000000000000000000000000000000000000000600052601160045260246000fd5b6000610d8582610b3f565b9150610d9083610b3f565b9250828201905080821115610da857610da7610d4b565b5b92915050565b610db781610c26565b82525050565b6000604082019050610dd26000830185610dae565b610ddf6020830184610a56565b939250505056fea26469706673582212206ea6a6db8034b0584d1b3c862178bf4a73cdb5c27f9789986af4da1c8b15815064736f6c63430008180033",
  "devdoc": {
    "errors": {
      "AccessControlBadConfirmation()": [
        {
          "details": "The caller of a function is not the expected one. NOTE: Don't confuse with {AccessControlUnauthorizedAccount}."
        }
      ],
      "AccessControlUnauthorizedAccount(address,bytes32)": [
        {
          "details": "The `account` is missing a role."
        }
      ]
    },
    "events": {
      "RoleAdminChanged(bytes32,bytes32,bytes32)": {
        "details": "Emitted when `newAdminRole` is set as ``role``'s admin role, replacing `previousAdminRole` `DEFAULT_ADMIN_ROLE` is the starting admin for all roles, despite {RoleAdminChanged} not being emitted signaling this."
      },
      "RoleGranted(bytes32,address,address)": {
        "details": "Emitted when `account` is granted `role`. `sender` is the account that originated the contract call, an admin role bearer except when using {AccessControl-_setupRole}."
      },
      "RoleRevoked(bytes32,address,address)": {
        "details": "Emitted when `account` is revoked `role`. `sender` is the account that originated the contract call:   - if using `revokeRole`, it is the admin role bearer   - if using `renounceRole`, it is the role bearer (i.e. `account`)"
      }
    },
    "kind": "dev",
    "methods": {
      "getRoleAdmin(bytes32)": {
        "details": "Returns the admin role that controls `role`. See {grantRole} and {revokeRole}. To change a role's admin, use {_setRoleAdmin}."
      },
      "grantRole(bytes32,address)": {
        "details": "Grants `role` to `account`. If `account` had not been already granted `role`, emits a {RoleGranted} event. Requirements: - the caller must have ``role``'s admin role. May emit a {RoleGranted} event."
      },
      "hasRole(bytes32,address)": {
        "details": "Returns `true` if `account` has been granted `role`."
      },
      "renounceRole(bytes32,address)": {
        "details": "Revokes `role` from the calling account. Roles are often managed via {grantRole} and {revokeRole}: this function's purpose is to provide a mechanism for accounts to lose their privileges if they are compromised (such as when a trusted device is misplaced). If the calling account had been revoked `role`, emits a {RoleRevoked} event. Requirements: - the caller must be `callerConfirmation`. May emit a {RoleRevoked} event."
      },
      "revokeRole(bytes32,address)": {
        "details": "Revokes `role` from `account`. If `account` had been granted `role`, emits a {RoleRevoked} event. Requirements: - the caller must have ``role``'s admin role. May emit a {RoleRevoked} event."
      },
      "supportsInterface(bytes4)": {
        "details": "See {IERC165-supportsInterface}."
      }
    },
    "version": 1
  },
  "userdoc": {
    "kind": "user",
    "methods": {},
    "version": 1
  },
  "storageLayout": {
    "storage": [
      {
        "astId": 26,
        "contract": "contracts/Entity.sol:Entity",
        "label": "_roles",
        "offset": 0,
        "slot": "0",
        "type": "t_mapping(t_bytes32,t_struct(RoleData)21_storage)"
      },
      {
        "astId": 456,
        "contract": "contracts/Entity.sol:Entity",
        "label": "name",
        "offset": 0,
        "slot": "1",
        "type": "t_bytes32"
      },
      {
        "astId": 458,
        "contract": "contracts/Entity.sol:Entity",
        "label": "location",
        "offset": 0,
        "slot": "2",
        "type": "t_bytes32"
      },
      {
        "astId": 460,
        "contract": "contracts/Entity.sol:Entity",
        "label": "productDescription",
        "offset": 0,
        "slot": "3",
        "type": "t_bytes32"
      },
      {
        "astId": 462,
        "contract": "contracts/Entity.sol:Entity",
        "label": "carbonUsage",
        "offset": 0,
        "slot": "4",
        "type": "t_uint256"
      },
      {
        "astId": 464,
        "contract": "contracts/Entity.sol:Entity",
        "label": "waterUsage",
        "offset": 0,
        "slot": "5",
        "type": "t_uint256"
      },
      {
        "astId": 466,
        "contract": "contracts/Entity.sol:Entity",
        "label": "plasticUsage",
        "offset": 0,
        "slot": "6",
        "type": "t_uint256"
      },
      {
        "astId": 468,
        "contract": "contracts/Entity.sol:Entity",
        "label": "produceWeight",
        "offset": 0,
        "slot": "7",
        "type": "t_uint256"
      },
      {
        "astId": 470,
        "contract": "contracts/Entity.sol:Entity",
        "label": "esgScore",
        "offset": 0,
        "slot": "8",
        "type": "t_uint8"
      },
      {
        "astId": 472,
        "contract": "contracts/Entity.sol:Entity",
        "label": "lastUpdated",
        "offset": 0,
        "slot": "9",
        "type": "t_uint256"
      }
    ],
    "types": {
      "t_address": {
        "encoding": "inplace",
        "label": "address",
        "numberOfBytes": "20"
      },
      "t_bool": {
        "encoding": "inplace",
        "label": "bool",
        "numberOfBytes": "1"
      },
      "t_bytes32": {
        "encoding": "inplace",
        "label": "bytes32",
        "numberOfBytes": "32"
      },
      "t_mapping(t_address,t_bool)": {
        "encoding": "mapping",
        "key": "t_address",
        "label": "mapping(address => bool)",
        "numberOfBytes": "32",
        "value": "t_bool"
      },
      "t_mapping(t_bytes32,t_struct(RoleData)21_storage)": {
        "encoding": "mapping",
        "key": "t_bytes32",
        "label": "mapping(bytes32 => struct AccessControl.RoleData)",
        "numberOfBytes": "32",
        "value": "t_struct(RoleData)21_storage"
      },
      "t_struct(RoleData)21_storage": {
        "encoding": "inplace",
        "label": "struct AccessControl.RoleData",
        "members": [
          {
            "astId": 18,
            "contract": "contracts/Entity.sol:Entity",
            "label": "hasRole",
            "offset": 0,
            "slot": "0",
            "type": "t_mapping(t_address,t_bool)"
          },
          {
            "astId": 20,
            "contract": "contracts/Entity.sol:Entity",
            "label": "adminRole",
            "offset": 0,
            "slot": "1",
            "type": "t_bytes32"
          }
        ],
        "numberOfBytes": "64"
      },
      "t_uint256": {
        "encoding": "inplace",
        "label": "uint256",
        "numberOfBytes": "32"
      },
      "t_uint8": {
        "encoding": "inplace",
        "label": "uint8",
        "numberOfBytes": "1"
      }
    }
  }
}