{
  "address": "0xBdCf5FDf26a8c27576B2700622C73475bEaa3924",
  "abi": [
    {
      "inputs": [],
      "stateMutability": "nonpayable",
      "type": "constructor"
    },
    {
      "inputs": [],
      "name": "AccessControlBadConfirmation",
      "type": "error"
    },
    {
      "inputs": [
        {
          "internalType": "address",
          "name": "account",
          "type": "address"
        },
        {
          "internalType": "bytes32",
          "name": "neededRole",
          "type": "bytes32"
        }
      ],
      "name": "AccessControlUnauthorizedAccount",
      "type": "error"
    },
    {
      "inputs": [],
      "name": "InvalidInitialization",
      "type": "error"
    },
    {
      "inputs": [],
      "name": "NotInitializing",
      "type": "error"
    },
    {
      "anonymous": false,
      "inputs": [
        {
          "indexed": false,
          "internalType": "uint64",
          "name": "version",
          "type": "uint64"
        }
      ],
      "name": "Initialized",
      "type": "event"
    },
    {
      "anonymous": false,
      "inputs": [
        {
          "indexed": true,
          "internalType": "bytes32",
          "name": "role",
          "type": "bytes32"
        },
        {
          "indexed": true,
          "internalType": "bytes32",
          "name": "previousAdminRole",
          "type": "bytes32"
        },
        {
          "indexed": true,
          "internalType": "bytes32",
          "name": "newAdminRole",
          "type": "bytes32"
        }
      ],
      "name": "RoleAdminChanged",
      "type": "event"
    },
    {
      "anonymous": false,
      "inputs": [
        {
          "indexed": true,
          "internalType": "bytes32",
          "name": "role",
          "type": "bytes32"
        },
        {
          "indexed": true,
          "internalType": "address",
          "name": "account",
          "type": "address"
        },
        {
          "indexed": true,
          "internalType": "address",
          "name": "sender",
          "type": "address"
        }
      ],
      "name": "RoleGranted",
      "type": "event"
    },
    {
      "anonymous": false,
      "inputs": [
        {
          "indexed": true,
          "internalType": "bytes32",
          "name": "role",
          "type": "bytes32"
        },
        {
          "indexed": true,
          "internalType": "address",
          "name": "account",
          "type": "address"
        },
        {
          "indexed": true,
          "internalType": "address",
          "name": "sender",
          "type": "address"
        }
      ],
      "name": "RoleRevoked",
      "type": "event"
    },
    {
      "inputs": [],
      "name": "DEFAULT_ADMIN_ROLE",
      "outputs": [
        {
          "internalType": "bytes32",
          "name": "",
          "type": "bytes32"
        }
      ],
      "stateMutability": "view",
      "type": "function"
    },
    {
      "inputs": [],
      "name": "ESG_MANAGER_ROLE",
      "outputs": [
        {
          "internalType": "bytes32",
          "name": "",
          "type": "bytes32"
        }
      ],
      "stateMutability": "view",
      "type": "function"
    },
    {
      "inputs": [
        {
          "internalType": "bytes32",
          "name": "role",
          "type": "bytes32"
        }
      ],
      "name": "getRoleAdmin",
      "outputs": [
        {
          "internalType": "bytes32",
          "name": "",
          "type": "bytes32"
        }
      ],
      "stateMutability": "view",
      "type": "function"
    },
    {
      "inputs": [
        {
          "internalType": "bytes32",
          "name": "role",
          "type": "bytes32"
        },
        {
          "internalType": "address",
          "name": "account",
          "type": "address"
        }
      ],
      "name": "grantRole",
      "outputs": [],
      "stateMutability": "nonpayable",
      "type": "function"
    },
    {
      "inputs": [
        {
          "internalType": "bytes32",
          "name": "role",
          "type": "bytes32"
        },
        {
          "internalType": "address",
          "name": "account",
          "type": "address"
        }
      ],
      "name": "hasRole",
      "outputs": [
        {
          "internalType": "bool",
          "name": "",
          "type": "bool"
        }
      ],
      "stateMutability": "view",
      "type": "function"
    },
    {
      "inputs": [
        {
          "internalType": "address",
          "name": "entity",
          "type": "address"
        },
        {
          "internalType": "address",
          "name": "esgAuthority",
          "type": "address"
        },
        {
          "internalType": "bytes32",
          "name": "initialName",
          "type": "bytes32"
        },
        {
          "internalType": "bytes32",
          "name": "initialLocation",
          "type": "bytes32"
        },
        {
          "internalType": "bytes32",
          "name": "initialProductDesc",
          "type": "bytes32"
        }
      ],
      "name": "initialize",
      "outputs": [],
      "stateMutability": "nonpayable",
      "type": "function"
    },
    {
      "inputs": [
        {
          "internalType": "uint256",
          "name": "newCarbonUsage",
          "type": "uint256"
        },
        {
          "internalType": "uint256",
          "name": "newWaterUsage",
          "type": "uint256"
        },
        {
          "internalType": "uint256",
          "name": "newPlasticUsage",
          "type": "uint256"
        },
        {
          "internalType": "uint256",
          "name": "newProduceWeight",
          "type": "uint256"
        }
      ],
      "name": "produce",
      "outputs": [],
      "stateMutability": "nonpayable",
      "type": "function"
    },
    {
      "inputs": [
        {
          "internalType": "bytes32",
          "name": "role",
          "type": "bytes32"
        },
        {
          "internalType": "address",
          "name": "callerConfirmation",
          "type": "address"
        }
      ],
      "name": "renounceRole",
      "outputs": [],
      "stateMutability": "nonpayable",
      "type": "function"
    },
    {
      "inputs": [
        {
          "internalType": "bytes32",
          "name": "role",
          "type": "bytes32"
        },
        {
          "internalType": "address",
          "name": "account",
          "type": "address"
        }
      ],
      "name": "revokeRole",
      "outputs": [],
      "stateMutability": "nonpayable",
      "type": "function"
    },
    {
      "inputs": [
        {
          "internalType": "bytes4",
          "name": "interfaceId",
          "type": "bytes4"
        }
      ],
      "name": "supportsInterface",
      "outputs": [
        {
          "internalType": "bool",
          "name": "",
          "type": "bool"
        }
      ],
      "stateMutability": "view",
      "type": "function"
    },
    {
      "inputs": [
        {
          "internalType": "uint8",
          "name": "updatedEsgScore",
          "type": "uint8"
        }
      ],
      "name": "updateEsgScore",
      "outputs": [],
      "stateMutability": "nonpayable",
      "type": "function"
    }
  ],
  "transactionHash": "0x5c35a3810a35eb9665ee75b89168ebe834361b3676c1a8a952a881034795c343",
  "args": [],
  "numDeployments": 2,
  "solcInputHash": "624cd7b5d14384cf48e434c3780dce12",
  "bytecode": "0x608060405234801561001057600080fd5b5061001f61002460201b60201c565b61018e565b600061003461012860201b60201c565b90508060000160089054906101000a900460ff161561007f576040517ff92ee8a900000000000000000000000000000000000000000000000000000000815260040160405180910390fd5b67ffffffffffffffff80168160000160009054906101000a900467ffffffffffffffff1667ffffffffffffffff16146101255767ffffffffffffffff8160000160006101000a81548167ffffffffffffffff021916908367ffffffffffffffff1602179055507fc7f505b2f371ae2175ee4913f4499e1f2633a7b5936321eed1cdaeb6115181d267ffffffffffffffff60405161011c9190610173565b60405180910390a15b50565b60007ff0c57e16840df040f15088dc2f81fe391c3923bec73e23a9662efc9c229c6a00905090565b600067ffffffffffffffff82169050919050565b61016d81610150565b82525050565b60006020820190506101886000830184610164565b92915050565b610f5d8061019d6000396000f3fe608060405234801561001057600080fd5b50600436106100a95760003560e01c806336568abe1161007157806336568abe146101625780636cef4a7f1461017e57806391d148541461019c578063984bd28f146101cc578063a217fddf146101e8578063d547741f14610206576100a9565b806301ffc9a7146100ae5780630ab72bf1146100de578063248a9ca3146100fa5780632cb82c911461012a5780632f2ff15d14610146575b600080fd5b6100c860048036038101906100c39190610b0c565b610222565b6040516100d59190610b54565b60405180910390f35b6100f860048036038101906100f39190610ba8565b61029c565b005b610114600480360381019061010f9190610c0b565b6102f6565b6040516101219190610c47565b60405180910390f35b610144600480360381019061013f9190610c98565b610324565b005b610160600480360381019061015b9190610d5d565b61039c565b005b61017c60048036038101906101779190610d5d565b6103be565b005b610186610439565b6040516101939190610c47565b60405180910390f35b6101b660048036038101906101b19190610d5d565b61045d565b6040516101c39190610b54565b60405180910390f35b6101e660048036038101906101e19190610d9d565b6104d6565b005b6101f06106f2565b6040516101fd9190610c47565b60405180910390f35b610220600480360381019061021b9190610d5d565b6106f9565b005b60007f7965db0b000000000000000000000000000000000000000000000000000000007bffffffffffffffffffffffffffffffffffffffffffffffffffffffff1916827bffffffffffffffffffffffffffffffffffffffffffffffffffffffff1916148061029557506102948261071b565b5b9050919050565b7f328ea31eb72cc9b0141cc07a0c522af89b254f0025b0b6f77b1cf6dc0ed9cbd96102c681610785565b600a8260ff1611156102d757600080fd5b81600760006101000a81548160ff021916908360ff1602179055505050565b600080610301610799565b905080600001600084815260200190815260200160002060010154915050919050565b6000801b61033181610785565b84600360008282546103439190610e47565b92505081905550836004600082825461035c9190610e47565b9250508190555082600560008282546103759190610e47565b92505081905550816006600082825461038e9190610e47565b925050819055505050505050565b6103a5826102f6565b6103ae81610785565b6103b883836107c1565b50505050565b6103c66108c2565b73ffffffffffffffffffffffffffffffffffffffff168173ffffffffffffffffffffffffffffffffffffffff161461042a576040517f6697b23200000000000000000000000000000000000000000000000000000000815260040160405180910390fd5b61043482826108ca565b505050565b7f328ea31eb72cc9b0141cc07a0c522af89b254f0025b0b6f77b1cf6dc0ed9cbd981565b600080610468610799565b905080600001600085815260200190815260200160002060000160008473ffffffffffffffffffffffffffffffffffffffff1673ffffffffffffffffffffffffffffffffffffffff16815260200190815260200160002060009054906101000a900460ff1691505092915050565b60006104e06109cc565b905060008160000160089054906101000a900460ff1615905060008260000160009054906101000a900467ffffffffffffffff1690506000808267ffffffffffffffff1614801561052e5750825b9050600060018367ffffffffffffffff16148015610563575060003073ffffffffffffffffffffffffffffffffffffffff163b145b905081158015610571575080155b156105a8576040517ff92ee8a900000000000000000000000000000000000000000000000000000000815260040160405180910390fd5b60018560000160006101000a81548167ffffffffffffffff021916908367ffffffffffffffff16021790555083156105f85760018560000160086101000a81548160ff0219169083151502179055505b6106006109f4565b87600081905550866001819055508560028190555060006003819055506000600481905550600060058190555060006006819055506000600760006101000a81548160ff021916908360ff16021790555061067b7f328ea31eb72cc9b0141cc07a0c522af89b254f0025b0b6f77b1cf6dc0ed9cbd98a6107c1565b506106896000801b8b6107c1565b5083156106e65760008560000160086101000a81548160ff0219169083151502179055507fc7f505b2f371ae2175ee4913f4499e1f2633a7b5936321eed1cdaeb6115181d260016040516106dd9190610ed4565b60405180910390a15b50505050505050505050565b6000801b81565b610702826102f6565b61070b81610785565b61071583836108ca565b50505050565b60007f01ffc9a7000000000000000000000000000000000000000000000000000000007bffffffffffffffffffffffffffffffffffffffffffffffffffffffff1916827bffffffffffffffffffffffffffffffffffffffffffffffffffffffff1916149050919050565b610796816107916108c2565b6109fe565b50565b60007f02dd7bc7dec4dceedda775e58dd541e08a116c6c53815c0bd028192f7b626800905090565b6000806107cc610799565b90506107d8848461045d565b6108b657600181600001600086815260200190815260200160002060000160008573ffffffffffffffffffffffffffffffffffffffff1673ffffffffffffffffffffffffffffffffffffffff16815260200190815260200160002060006101000a81548160ff0219169083151502179055506108526108c2565b73ffffffffffffffffffffffffffffffffffffffff168373ffffffffffffffffffffffffffffffffffffffff16857f2f8788117e7eff1d82e926ec794901d17c78024a50270940304540a733656f0d60405160405180910390a460019150506108bc565b60009150505b92915050565b600033905090565b6000806108d5610799565b90506108e1848461045d565b156109c057600081600001600086815260200190815260200160002060000160008573ffffffffffffffffffffffffffffffffffffffff1673ffffffffffffffffffffffffffffffffffffffff16815260200190815260200160002060006101000a81548160ff02191690831515021790555061095c6108c2565b73ffffffffffffffffffffffffffffffffffffffff168373ffffffffffffffffffffffffffffffffffffffff16857ff6391f5c32d9c69d2a47ea670b442974b53935d1edc7fd64eb21e047a839171b60405160405180910390a460019150506109c6565b60009150505b92915050565b60007ff0c57e16840df040f15088dc2f81fe391c3923bec73e23a9662efc9c229c6a00905090565b6109fc610a4f565b565b610a08828261045d565b610a4b5780826040517fe2517d3f000000000000000000000000000000000000000000000000000000008152600401610a42929190610efe565b60405180910390fd5b5050565b610a57610a8f565b610a8d576040517fd7e6bcf800000000000000000000000000000000000000000000000000000000815260040160405180910390fd5b565b6000610a996109cc565b60000160089054906101000a900460ff16905090565b600080fd5b60007fffffffff0000000000000000000000000000000000000000000000000000000082169050919050565b610ae981610ab4565b8114610af457600080fd5b50565b600081359050610b0681610ae0565b92915050565b600060208284031215610b2257610b21610aaf565b5b6000610b3084828501610af7565b91505092915050565b60008115159050919050565b610b4e81610b39565b82525050565b6000602082019050610b696000830184610b45565b92915050565b600060ff82169050919050565b610b8581610b6f565b8114610b9057600080fd5b50565b600081359050610ba281610b7c565b92915050565b600060208284031215610bbe57610bbd610aaf565b5b6000610bcc84828501610b93565b91505092915050565b6000819050919050565b610be881610bd5565b8114610bf357600080fd5b50565b600081359050610c0581610bdf565b92915050565b600060208284031215610c2157610c20610aaf565b5b6000610c2f84828501610bf6565b91505092915050565b610c4181610bd5565b82525050565b6000602082019050610c5c6000830184610c38565b92915050565b6000819050919050565b610c7581610c62565b8114610c8057600080fd5b50565b600081359050610c9281610c6c565b92915050565b60008060008060808587031215610cb257610cb1610aaf565b5b6000610cc087828801610c83565b9450506020610cd187828801610c83565b9350506040610ce287828801610c83565b9250506060610cf387828801610c83565b91505092959194509250565b600073ffffffffffffffffffffffffffffffffffffffff82169050919050565b6000610d2a82610cff565b9050919050565b610d3a81610d1f565b8114610d4557600080fd5b50565b600081359050610d5781610d31565b92915050565b60008060408385031215610d7457610d73610aaf565b5b6000610d8285828601610bf6565b9250506020610d9385828601610d48565b9150509250929050565b600080600080600060a08688031215610db957610db8610aaf565b5b6000610dc788828901610d48565b9550506020610dd888828901610d48565b9450506040610de988828901610bf6565b9350506060610dfa88828901610bf6565b9250506080610e0b88828901610bf6565b9150509295509295909350565b7f4e487b7100000000000000000000000000000000000000000000000000000000600052601160045260246000fd5b6000610e5282610c62565b9150610e5d83610c62565b9250828201905080821115610e7557610e74610e18565b5b92915050565b6000819050919050565b600067ffffffffffffffff82169050919050565b6000819050919050565b6000610ebe610eb9610eb484610e7b565b610e99565b610e85565b9050919050565b610ece81610ea3565b82525050565b6000602082019050610ee96000830184610ec5565b92915050565b610ef881610d1f565b82525050565b6000604082019050610f136000830185610eef565b610f206020830184610c38565b939250505056fea26469706673582212208bb8157b0240f57c1908f4c196babf14b5d2c7d05fa930d442d7eea91bc52e9364736f6c63430008180033",
  "libraries": {},
  "devdoc": {
    "errors": {
      "AccessControlBadConfirmation()": [
        {
          "details": "The caller of a function is not the expected one. NOTE: Don't confuse with {AccessControlUnauthorizedAccount}."
        }
      ],
      "AccessControlUnauthorizedAccount(address,bytes32)": [
        {
          "details": "The `account` is missing a role."
        }
      ],
      "InvalidInitialization()": [
        {
          "details": "The contract is already initialized."
        }
      ],
      "NotInitializing()": [
        {
          "details": "The contract is not initializing."
        }
      ]
    },
    "events": {
      "Initialized(uint64)": {
        "details": "Triggered when the contract has been initialized or reinitialized."
      },
      "RoleAdminChanged(bytes32,bytes32,bytes32)": {
        "details": "Emitted when `newAdminRole` is set as ``role``'s admin role, replacing `previousAdminRole` `DEFAULT_ADMIN_ROLE` is the starting admin for all roles, despite {RoleAdminChanged} not being emitted signaling this."
      },
      "RoleGranted(bytes32,address,address)": {
        "details": "Emitted when `account` is granted `role`. `sender` is the account that originated the contract call, an admin role bearer except when using {AccessControl-_setupRole}."
      },
      "RoleRevoked(bytes32,address,address)": {
        "details": "Emitted when `account` is revoked `role`. `sender` is the account that originated the contract call:   - if using `revokeRole`, it is the admin role bearer   - if using `renounceRole`, it is the role bearer (i.e. `account`)"
      }
    },
    "kind": "dev",
    "methods": {
      "getRoleAdmin(bytes32)": {
        "details": "Returns the admin role that controls `role`. See {grantRole} and {revokeRole}. To change a role's admin, use {_setRoleAdmin}."
      },
      "grantRole(bytes32,address)": {
        "details": "Grants `role` to `account`. If `account` had not been already granted `role`, emits a {RoleGranted} event. Requirements: - the caller must have ``role``'s admin role. May emit a {RoleGranted} event."
      },
      "hasRole(bytes32,address)": {
        "details": "Returns `true` if `account` has been granted `role`."
      },
      "renounceRole(bytes32,address)": {
        "details": "Revokes `role` from the calling account. Roles are often managed via {grantRole} and {revokeRole}: this function's purpose is to provide a mechanism for accounts to lose their privileges if they are compromised (such as when a trusted device is misplaced). If the calling account had been revoked `role`, emits a {RoleRevoked} event. Requirements: - the caller must be `callerConfirmation`. May emit a {RoleRevoked} event."
      },
      "revokeRole(bytes32,address)": {
        "details": "Revokes `role` from `account`. If `account` had been granted `role`, emits a {RoleRevoked} event. Requirements: - the caller must have ``role``'s admin role. May emit a {RoleRevoked} event."
      },
      "supportsInterface(bytes4)": {
        "details": "See {IERC165-supportsInterface}."
      }
    },
    "version": 1
  },
  "userdoc": {
    "kind": "user",
    "methods": {},
    "version": 1
  },
  "storageLayout": {
    "storage": [
      {
        "astId": 812,
        "contract": "contracts/Entity.sol:Entity",
        "label": "name",
        "offset": 0,
        "slot": "0",
        "type": "t_bytes32"
      },
      {
        "astId": 814,
        "contract": "contracts/Entity.sol:Entity",
        "label": "location",
        "offset": 0,
        "slot": "1",
        "type": "t_bytes32"
      },
      {
        "astId": 816,
        "contract": "contracts/Entity.sol:Entity",
        "label": "productDescription",
        "offset": 0,
        "slot": "2",
        "type": "t_bytes32"
      },
      {
        "astId": 818,
        "contract": "contracts/Entity.sol:Entity",
        "label": "carbonUsage",
        "offset": 0,
        "slot": "3",
        "type": "t_uint256"
      },
      {
        "astId": 820,
        "contract": "contracts/Entity.sol:Entity",
        "label": "waterUsage",
        "offset": 0,
        "slot": "4",
        "type": "t_uint256"
      },
      {
        "astId": 822,
        "contract": "contracts/Entity.sol:Entity",
        "label": "plasticUsage",
        "offset": 0,
        "slot": "5",
        "type": "t_uint256"
      },
      {
        "astId": 824,
        "contract": "contracts/Entity.sol:Entity",
        "label": "produceWeight",
        "offset": 0,
        "slot": "6",
        "type": "t_uint256"
      },
      {
        "astId": 826,
        "contract": "contracts/Entity.sol:Entity",
        "label": "esgScore",
        "offset": 0,
        "slot": "7",
        "type": "t_uint8"
      }
    ],
    "types": {
      "t_bytes32": {
        "encoding": "inplace",
        "label": "bytes32",
        "numberOfBytes": "32"
      },
      "t_uint256": {
        "encoding": "inplace",
        "label": "uint256",
        "numberOfBytes": "32"
      },
      "t_uint8": {
        "encoding": "inplace",
        "label": "uint8",
        "numberOfBytes": "1"
      }
    }
  }
}